:100000000C940F020C9456020C9456020C94560257
:100010000C9456020C9456020C9456020C94560200
:100020000C9456020C9456020C94CD200C949F21F3
:100030000C94BF1A0C9456020C9456020C9456025F
:100040000C9456020C9456020C9456020C945602D0
:100050000C9456020C94271B0C9456020C945602D6
:100060000C9456020C9456020C9456020C945602B0
:100070000C9456020C9456020C9456020C945602A0
:100080000C94050A0C9456020C9456020C945602D9
:100090000C9456020C9456020C9456020C94560280
:1000A0000C9456020C9456020C945602C111C111C4
:1000B000F011F0112C126213621362134A126213D0
:1000C000EF12EF125513621362135D13FC12FC1250
:1000D000FC12FC12FC12FC12FC12FC12FC12FC12B0
:1000E000FC12FC12FC12FC12FC12FC120C131A1370
:1000F0002113281332130C222E2221232E222123F6
:10010000732296222123EB22FE2207634236B79BFD
:10011000D8A71A39685618AEBAAB558C1D3CB7CC67
:100120005763BD6DEDFD753EF6177231BF000000DF
:10013000803F08000000BE922449123EABAAAA2AC2
:10014000BECDCCCC4C3E00000080BEABAAAAAA3EDD
:1001500000000000BF000000803F00000000000819
:100160004178D3BB4387D1133D190E3CC3BD4282B6
:10017000AD2B3E68EC8276BED98FE1A93E4C80EF74
:10018000FFBE01C4FF7F3F00000000002B001400F1
:100190001A000800150017001C0018000C001200BF
:1001A00013002A00290004001600070009000A00B5
:1001B0000B000D000E000F0033003400E1001D00A5
:1001C0001B00060019000500110010003600370062
:1001D00038002800E500E000E200E30001302C00D8
:1001E0002C0002305000510052004F0035021E0218
:1001F0001F022002210222022302240225022602DB
:1002000027022A004C003A003B003C003D003E0023
:100210003F002D022E022F02300231020100400069
:1002200041004200430044004500320264020100E4
:100230000100010000700100010001000100010047
:1002400001000100AB00AA00A900AE0035021E02A9
:100250001F0220022102220223022402250226027A
:1002600027024C0035001E001F0020002100220044
:10027000230024002500260027002E0201002E0066
:1002800031003102430044002F0230022D002E02C3
:100290002D02280000700100010001000100010092
:1002A00001000100AB00AA00A900AE002803540021
:1002B00068006500200050006C0061006E00630063
:1002C0006B0020004B006500790062006F00610048
:1002D0007200640000002C034F007200740068007C
:1002E0006F006C0069006E00650061007200200004
:1002F0004B006500790062006F00610072006400CD
:10030000730000000403090409025400030100A063
:10031000FA09040000010301010009211101000193
:100320002240000705810308000A090401000103B7
:100330000000000921110100012236000705820397
:1003400008000A090402000103000000092111014C
:10035000000122390007058303100001120110017A
:1003600000000008EDFE60600400010200010501CC
:100370000906A101050719E029E7150025019508DF
:10038000750181020508190129059505750191027C
:1003900095017503910105071900297715002501BD
:1003A000957875018102C005010980A101850216B9
:1003B000010026B7001A01002AB7007510950181C7
:1003C00000C0050C0901A1018503160100269C024D
:1003D0001A01002A9C02751095018100C0050109CF
:1003E00006A101050719E029E71500250195087503
:1003F00001810295017508810105081901290595FA
:1004000005750191029501750391010507190029F0
:10041000FF150026FF00950675088100C000112415
:100420001FBECFEFDAE0DEBFCDBF04B603FE27C0AC
:100430008091FF0290910003A0910103B09102030B
:100440008730904BA740B04BD1F41092FF0210922E
:100450000003109201031092020314BE84B7877F39
:1004600084BF0FB6F894A89580916000886180934E
:100470006000109260000FBEE0E0F8E3099511E023
:10048000A0E0B1E0E4EAFFE402C005900D92AC3ACE
:10049000B107D9F722E0ACEAB1E001C01D92AF3F4D
:1004A000B207E1F70E941A1E0C94D0270C940000AA
:1004B0006E9A769A0C945F06613019F0623049F0BA
:1004C00013C0FC018281882311F081E007C081E024
:1004D00009C0FC018281882321F082E00E94FF177D
:1004E00003C082E00E94201880E090E0089581E03F
:1004F000089581E008950C9479020C9458020E94AA
:10050000C8080C94610608950C9483020C9484022C
:1005100008950E94C7130E9430090E9488022FEF9D
:1005200084E39CE0215080409040E1F700C000004F
:100530000C944C1B0F931F93CF93DF938C01FC0102
:10054000C081D181CE010E94BB18BE010E94590515
:10055000EC01B8010E947B02882309F412C1B801A2
:10056000CE010E946807882309F40BC1B801CE01AF
:100570000E94E905882309F404C1C431F0E7DF07CC
:1005800008F0CDC0C23080E7D80708F4A3C0F80156
:100590008281882309F4AAC00E94501A811102C0E6
:1005A0000E94311A0E94631A90E09093F1028093A6
:1005B000F002C230F0E7DF0721F48091F0028160A1
:1005C00082C0C33080E7D80721F48091F0028260B6
:1005D0007AC0C430E0E7DE0721F48091F002846045
:1005E00072C0C530F0E7DF0719F48091F00227C030
:1005F000C63080E7D80721F48091F002806163C0A3
:10060000C730E0E7DE0721F48091F00280625BC032
:10061000C830F0E7DF0721F48091F002806453C016
:10062000C93080E7D80721F48091F00280684BC080
:10063000CA30E0E7DE0729F48091F0028460886028
:1006400042C0CB30F0E7DF0721F48091F0028E7FCB
:100650003AC0CC3080E7D80721F48091F0028D7F3A
:1006600032C0CD30E0E7DE0721F48091F0028B7FCD
:100670002AC0CE30F0E7DF0719F48091F00222C0E3
:10068000CF3080E7D80721F48091F0028F7E1BC025
:10069000C031E0E7DE0721F48091F0028F7D13C0C6
:1006A000C131F0E7DF0721F48091F0028F7B0BC0AE
:1006B000C231D04721F48091F0028F7704C080913D
:1006C000F0028B7F877F8093F0028091F0020E947E
:1006D000671A57C0C115E0E7DE0779F0C130D0478F
:1006E000A1F081E08093AC018093AD01C801DF915E
:1006F000CF911F910F910C947702F801828188238A
:1007000009F43FC00E9489023CC0F801828188231D
:10071000C1F18091CB0281608093CB0232C0CB3398
:1007200080E7D807A1F4F8018281882321F0109294
:10073000AC0182E016C08091AC01811106C086E256
:100740000E94531086E20E94261182E018C0CC332A
:10075000D04739F6F8018281882331F01092AD013B
:1007600080E20E9475110DC08091AD01811106C01B
:1007700087E20E94531087E20E94261180E20E94C5
:100780007C1180E0DF91CF911F910F91089520E3BC
:10079000829FC0011124FC014CE0749FE00DF11D0B
:1007A0001124E60FF11DEE0FFF1FE457FE4F859158
:1007B00094910E946C05811520E49207B0F5811593
:1007C00040E3940708F0E6C0803E9105D8F4803CF1
:1007D000910508F06CC0883A910578F4853A910546
:1007E00008F06BC08130910509F461C108F418C1AB
:1007F0008430910508F05BC113C18D3B910508F46D
:1008000067C00EC18F3F910509F048F4803F910504
:1008100008F0B5C0883E910508F449C101C18115B1
:1008200020E2920708F0ADC00895811543E59407D2
:1008300090F4811522E5920708F0D1C0811541E5B9
:10084000940708F0C7C0811520E5920708F0A5C0FD
:100850009F70906A0895811545E59407D8F4811535
:1008600024E5920708F0D1C09C0123703327E1E012
:10087000F0E002C0EE0FFF1F2A95E2F7282F269521
:10088000269540E2249F90011124CF01822B932BC7
:100890009A680895811546E5940708F4BBC09C0149
:1008A00030562115304108F0BBC09F70B7C0FC0125
:1008B000EE0FFF1FE45FFF4F6AC0853A910509F410
:1008C000B2C0863A910509F0B1C082E890E408957B
:1008D000883A910509F4ADC0893A910509F4ACC094
:1008E0008A3A910509F4ABC08B3A910509F4AAC084
:1008F0008C3A910509F4A9C08B3B910509F4A8C075
:100900008C3B910509F4A7C08D3A910509F4A6C066
:10091000803B910509F4A5C08E3A910509F4A4C065
:100920008F3A910509F4A3C0813B910509F4A2C057
:10093000823B910509F4A1C0833B910509F4A0C055
:10094000843B910509F49FC0853B910509F49EC045
:10095000863B910509F49DC0873B910509F49CC035
:10096000883B910509F49BC0893B910509F49AC025
:100970008A3B910509F499C080E094E4089590655C
:100980000895FC01FF70EE0FFF1FE457FE4F8591A5
:10099000949108959927906C08959C0154E03695A0
:1009A00027955A95E1F7922F9370482F437021E0D5
:1009B00030E002C0220F331F4A95E2F73C68392B22
:1009C0008F708695869540E2849FC0011124822B0A
:1009D000932B0895982F8827816F906A08959C0122
:1009E00023703327E1E0F0E002C0EE0FFF1F2A95ED
:1009F000E2F7282F2695269580E2289F9001112462
:100A0000CF01822B932B9C680895982F8827846FA1
:100A1000906A08958F719927982F8827906208957A
:100A200080E090E0089581E890E4089583E890E400
:100A3000089582EE94E4089589EE94E408958AEE90
:100A400094E4089585EB94E4089586EB94E4089586
:100A500083EB94E4089584EB94E4089587EB94E4A5
:100A600008958CEC94E408958DEC94E4089583E863
:100A700095E408958AE895E4089582E995E4089557
:100A800084E995E4089581E296E4089583E296E48A
:100A9000089584E296E4089585E296E4089586E256
:100AA00096E4089587E296E408958AE296E408952C
:100AB000089520E3829FC0011124FC012CE0729F65
:100AC000E00DF11D1124E60FF11DEE0FFF1FE4579D
:100AD000FE4F8591949108958238910549F1B0F4C3
:100AE0008133910509F459C048F48932910509F41C
:100AF0004FC08A32910509F455C008958533910598
:100B000009F441C08933910599F00895833E910518
:100B100031F138F4803E910591F0823E9105A9F0C3
:100B20000895863E910501F1873E910539F10895BA
:100B30002091F00220FD3BC021FD39C00895809135
:100B4000F00280FF34C089E341C08091F00282FF4F
:100B500030C08091F00284FD2EC083EE37C08091BA
:100B6000F00282FD26C0F5CF8091F00283FF25C000
:100B70008091F00284FD1FC087EE28C08091F002B2
:100B800083FD1BC0F5CF8091F00285FD18C019C010
:100B90008091F00285FD15C012C08091F00286FDA3
:100BA00012C013C08091F00286FD0FC00CC080EE11
:100BB0000DC082EE0BC080E009C086EE07C089E25E
:100BC00005C085E303C08AE201C081E390E0089597
:100BD00008950F931F93CF938C01FB0182818111A4
:100BE00002C0C1E040C0C091BB01C11125C00431A9
:100BF0001047B9F70E94E80581E08093BB010E948D
:100C0000F11A9093BA018093B9011092AE0110923B
:100C1000B0011092AF011092B2011092B101109286
:100C2000B4011092B3011092B6011092B501109266
:100C3000B8011092B70117C08091B9019091BA0123
:100C40000E94FD1A883C910560F68091AE01E82F64
:100C5000F0E0EE0FFF1FE155FE4F118300838F5F21
:100C60008093AE01C0E08C2FCF911F910F9108951A
:100C7000CF93DF93A8E4B1E04CE451E061E070E091
:100C80008D91E82FF0E094E0F595E7959A95E1F7DE
:100C900021A18F70EB0102C0CC0FDD1F8A95E2F716
:100CA000CE019C2F9095922391A392A1892B82A390
:100CB0004A175B0729F7DF91CF91089508950C94A7
:100CC0005E060C945E0685B7806885BF85B7806830
:100CD00085BF0E943806ACE3B1E041E050E08D9161
:100CE000E82FF0E094E0F595E7959A95E1F721A1DA
:100CF0008F70BA0102C0660F771F8A95E2F7CB01A9
:100D0000962F9095922391A392A1892B82A371E0B3
:100D1000A834B70721F71092C5011092C4011092B0
:100D2000BD011092BC011092C7011092C601109231
:100D3000BF011092BE011092C9011092C801109219
:100D4000C1011092C0011092CB011092CA01109201
:100D5000C3011092C2010C947D02DF92EF92FF92C8
:100D60000F931F93CF93DF9308E411E0CCEBD1E016
:100D7000EE24E394F12C35E0D32EF80181918F011C
:100D8000E82FF0E094E0F595E7959A95E1F721A139
:100D90008F70A70102C0440F551F8A95E2F7CA0160
:100DA000922F982B91A392A18095892382A350EA38
:100DB0005A95F1F7ECE3F1E020E030E040E050E05C
:100DC0006191A62FB0E084E0B595A7958A95E1F7EB
:100DD00090968C9190E06F7002C0959587956A957A
:100DE000E2F780FD08C0C701042E02C0880F991FDA
:100DF0000A94E2F702C080E090E0282B392B4F5F85
:100E00005F4F4C305105E1F6888199818217930735
:100E100021F039832883D09200010E94380622965F
:100E200081E0C43CD80709F0A8CF80910001882355
:100E300061F1815080930001882339F0EFE9FFE0F0
:100E40003197F1F700C0000020C08091BC01909163
:100E5000BD019093C5018093C4018091BE01909122
:100E6000BF019093C7018093C6018091C00190910A
:100E7000C1019093C9018093C8018091C2019091F2
:100E8000C3019093CB018093CA010E947F0281E04D
:100E9000DF91CF911F910F91FF90EF90DF90089518
:100EA000E82FF0E0EE0FFF1FEC53FE4F80819181A1
:100EB00008950895109212020C94300908950C942C
:100EC0005E070C945E0781E0809312020C94610728
:100ED0008F929F92AF92BF92EF92FF920F931F93C8
:100EE000CF93DF93CDB7DEB7A3970FB6F894DEBFED
:100EF0000FBECDBF7C018B01853120E7920741F405
:100F0000FB018281882309F458C00E94880D0BC020
:100F10008631F0E79F0749F4FB018281882309F4B9
:100F20004CC00E94910D80E022C18731F0E79F07FD
:100F300051F4FB018281882309F43FC00E94840D93
:100F40008111EFCFE2CF8831F0E79F0739F4FB0141
:100F50008281882391F10E946307E5CF8931F0E710
:100F60009F0739F4FB018281882339F10E945A07D7
:100F7000DACF8A31F0E79F0749F4FB0182818823A9
:100F8000E1F0809112028111F1CFE5CF8B31F0E7D2
:100F90009F0739F4FB018281882379F00E94980D24
:100FA00009C08C31904749F4FB018281882329F0E4
:100FB0000E94A30D0E945E07B6CF80911202882383
:100FC00009F4D4C0F0EEEF16F10479F4F80182814F
:100FD000882309F452C00E94300981E080931102F5
:100FE000109210021092CF019ECFF2EEEF16F10494
:100FF00061F4F8018281882309F43FC00E9430091E
:1010000010921102109210028ECFF3EEEF16F1043F
:1010100091F4F8018281882381F10E9430091092B5
:10102000110281E0809310021092CE011092CD0146
:101030001092CC0178CFF2E5EF16F10459F4F801E3
:101040008281882309F493C080910101909102016B
:101050000A970EC0F1E5EF16F10479F4F8018281E8
:10106000882309F484C080910101909102010A96BD
:10107000909302018093010156CF4091050183E2D4
:10108000E9E1F1E0DE01119601900D928A95E1F718
:10109000F801808121E030E02C0F3D1F280F311D29
:1010A000C9012091030130910401FC01E20FF31FFB
:1010B0006081062E000C770B640F711D072E000C4B
:1010C000880B990B0E94712420E030E040E451E449
:1010D0000E94C7234B015C01F801818164E070E04C
:1010E000681B7109072E000C880B990B0E94712454
:1010F0009B01AC01C501B4010E9456239B01AC01C8
:1011000060E070E080E090E40E94F52520E030E0AF
:101110004CED50E40E9488254B015C01F80182816E
:101120008823D1F04FE050E0C501B4010E94240DA6
:10113000809111028823A1F08091CF0124E0829F49
:10114000F0011124E053FE4F80829182A282B3828B
:101150008F5F8093CF0104C0C501B4010E94630971
:1011600081E03FEFE316F10410F4DDCE81E0A396B9
:101170000FB6F894DEBF0FBECDBFDF91CF911F91A8
:101180000F91FF90EF90BF90AF909F908F90089538
:1011900080911002882309F448C08091CC0190917D
:1011A000CD01009779F40E94F11A9093CD018093BC
:1011B000CC018091CE0190E0009771F48091CF0135
:1011C00090E00AC00E94FD1A2091010130910201B5
:1011D0002817390740F308950197880F991F880F42
:1011E000991FFC01E053FE4F6081718182819381E0
:1011F0000E946309E091CE0184E0E89FF001112490
:10120000E053FE4F60817181828193814FE050E015
:101210000E94240D8091CE0190E001966091CF0153
:1012200070E00E9480278093CE0108950E94501A9A
:10123000811102C00E94311A0E946C1A8093E80248
:101240003E9A809171008D7F8093710082E080933F
:1012500090008AE18093910081E0809315020895C7
:1012600080911502811102C00E9416091092650238
:1012700010926402809171008D7F80937100809143
:1012800090008F7380939000109227021092260294
:1012900010925E0210925F02109260021092610240
:1012A00010925D0210925C02ECE3F2E0ACE2B2E07C
:1012B00011921192119211921D921D9282E0EC35C1
:1012C000F807B1F70895CF92DF92EF92FF920F9354
:1012D0001F93CF93DF936B017C01809126028823BB
:1012E00009F48AC080911502811102C00E9416097A
:1012F0000CE512E0C7E0D0E0A7019601F801929159
:101300008291729162918F010E94C223811138C033
:10131000DE01AA0FBB1FAA0FBB1FA45CBD4F1D920D
:101320001D921D921C921397FE01EE0FFF1FE45DAC
:10133000FD4F118210828F010E5F1F4FC730D10504
:1013400011F1219614964D915D916D917C911797B5
:101350004D935D936D937C93139714961D921D92FC
:101360001D921C921797F80120813181C8010297C4
:10137000FC0131832083F801118210821496DCCFA6
:10138000219708F0B9CF809164029091650201978E
:1013900097FD05C0909365028093640204C010928B
:1013A000650210926402809164029091650220911E
:1013B0006202309163022817390724F01092630209
:1013C00010926202892BC1F4809171008D7F80930D
:1013D0007100809190008F738093900010925E0254
:1013E00010925F02109260021092610210925D02F0
:1013F00010925C0210922602DF91CF911F910F9103
:10140000FF90EF90DF90CF9008951F920F920FB64C
:101410000F9211244F925F926F927F928F929F92C0
:10142000AF92BF92CF92DF92EF92FF922F933F93B2
:101430004F935F936F937F938F939F93AF93BF93DC
:10144000CF93DF93EF93FF9380912602882309F4D3
:101450009BC1C0916402D09165021C161D060CF060
:1014600093C140901602509017026090180270903D
:10147000190220E030E0A901C301B2010E948325D6
:1014800018160CF065C0C130D10509F452C0809126
:10149000620290916302BE010E9480277C019093BA
:1014A0006302809362028090280290902902A090AB
:1014B0002A02B0902B0220E030E040E85FE3C50153
:1014C000B4010E94562360932802709329028093EE
:1014D0002A0290932B02F701EE0FFF1FEE0FFF1F62
:1014E000E45CFD4FA301920160817181828193814F
:1014F0000E94C72320E030E040E05EE30E948825A0
:101500009B01AC01C501B4010E94832518168CF41F
:10151000C7010196BE010E948027909363028093C9
:101520006202109228021092290210922A0210924E
:101530002B02E0916202F0916302EE0FFF1FEE0FAB
:10154000FF1FE45CFD4F6081718182819381D0C077
:10155000C0905E02D0905F02E0906002F090610265
:1015600020E030E0A901C701B6010E94C223219703
:10157000882309F4A2C0FE01EE0FFF1FEE0FFF1F2C
:10158000E45CFD4F80809180A280B380A50194012E
:10159000C701B6010E94C22387FF31C0A501940193
:1015A00060E070E08CED93EC0E94C72320E030E017
:1015B00040E451E40E94C72320E030E040E05FE3D4
:1015C0000E9488259B01AC0160E070E080E090E41F
:1015D0000E94F5259B01AC01C501B4010E9488253C
:1015E0009B01AC01C701B6010E94C22387FF07C05F
:1015F000A701960160E070E08CED93E439C0A5018D
:101600009401C701B6010E94832518160CF055C03D
:10161000A501940160E070E08CED93E40E94C72383
:1016200020E030E040E451E40E94C72320E030E0B5
:1016300040E05FE30E9488259B01AC0160E070E020
:1016400080E090E40E94F5259B01AC01C501B40146
:101650000E9488259B01AC01C701B6010E94832529
:1016600018165CF5A701960160E070E08CED93EC34
:101670000E94C72320E030E040E451E40E94C723E9
:1016800020E030E040E05FE30E9488259B01AC0150
:1016900060E070E080E090E40E94F5259B01AC01E1
:1016A000C701B6010E94882560935E0270935F02B5
:1016B000809360029093610213C0FE01EE0FFF1F42
:1016C000EE0FFF1FE45CFD4F80819181A281B38109
:1016D00080935E0290935F02A0936002B0936102D8
:1016E00060915E0270915F02809160029091610250
:1016F00020911302309114022F3F4FEF340731F045
:101700002F5F3F4F30931402209313020E94AE0DBF
:101710006B017C0120E034E244EF51E40E94C223DB
:1017200087FF08C086EFC82E88E2D82E84EFE82E07
:1017300081E4F82E20E030E040E051E4C701B6013A
:101740000E9488259B01AC0160E074E284E79BE481
:101750000E94C7236B017C010E9440247093970074
:101760006093960020910601309107014091080195
:1017700050910901C701B6010E9488250E944024AA
:10178000709399006093980080912702882309F450
:1017900034C1C0902202D0902302E0902402F09045
:1017A000250220E030E0A901C701B6010E9483258F
:1017B0001816D4F580911302909114028F3F2FEFE9
:1017C000920729F001969093140280931302C701A7
:1017D000B6010E94AE0D20E030E040E051E40E94EE
:1017E00088259B01AC0160E074E284E79BE40E94E1
:1017F000C7236B017C010E94402470939700609383
:101800009600209106013091070140910801509106
:101810000901C701B6010E9488250E9440247093E7
:1018200099006093980008C010929700109296005B
:10183000109299001092980060911C0270911D0204
:101840006F5F7F4F70931D0260931C022091960082
:101850003091970080E090E0232BF1F0C09196004A
:10186000D09197000E946F246B017C01BE0180E043
:1018700090E00E946F249B01AC0160911E02709168
:101880001F0280912002909121020E94C72320E034
:101890003FEF4FE757E410C00E946F246B017C01BB
:1018A00020E030EE4FEF54E460911E0270911F0271
:1018B00080912002909121020E9488259B01AC0119
:1018C000C701B6010E94832587FD97C080911A0247
:1018D0008F5F80931A0290E02091E4023091E5023C
:1018E00082179307A0F08091EF02882319F01092DD
:1018F0001A020DC0809171008D7F809371008091DC
:1019000090008F7380939000109227027EC0809188
:101910001B02D0911A02811128C0C090E902D09018
:10192000EA02E090EB02F090EC0220E030E0A90146
:10193000C701B6010E9483251816BCF481E080938C
:101940001B02109222021092230210922402109283
:101950002502C0921E02D0921F02E0922002F09255
:101960002102D150D0931A0244C010921B0210924F
:101970001402109213028091E6029091E7029C01FA
:1019800048E0D49F200D311D1124E90188819981FF
:10199000AA81BB818093220290932302A093240208
:1019A000B093250260910A0170E080E090E00E940F
:1019B0006F2420E030E048EC52E40E94C7236B0122
:1019C0007C0120E030E040E85EE36C817D818E8127
:1019D0009F810E9488259B01AC01C701B6010E942E
:1019E000882560931E0270931F02809320029093BB
:1019F000210210921D0210921C028091E80280FDCB
:101A000004C01092270210922602FF91EF91DF91FD
:101A1000CF91BF91AF919F918F917F916F915F9186
:101A20004F913F912F91FF90EF90DF90CF90BF901B
:101A3000AF909F908F907F906F905F904F900F909E
:101A40000FBE0F901F901895CF92DF92EF92FF92EA
:101A5000CF93DF936B017C01EA0180911502811124
:101A600002C00E9416098091E80280FF46C0809162
:101A700064029091650208970CF03FC0809171005C
:101A80008D7F809371008091270281110E9430091F
:101A900081E080932602109214021092130220E03B
:101AA00030E0A901C701B6010E9483251816DCF4B5
:101AB0008091640290916502FC01EE0FFF1FEE0F12
:101AC000FF1FE45CFD4FC082D182E282F382FC0101
:101AD000EE0FFF1FE45DFD4FD183C083019690930D
:101AE000650280936402809171008260809371002E
:101AF00080919000806880939000DF91CF91FF905B
:101B0000EF90DF90CF9008958091E8028170089562
:101B10008091E80281608093E8020E94701A0C9420
:101B20005F078091E8028E7F8093E8020C94701A20
:101B30008091660290E0019666E070E00E94802746
:101B40008093660208958091660290E0019766E0B6
:101B500070E00E9480278093660208958F929F9282
:101B6000AF92BF92CF92DF92EF92FF920F931F93AB
:101B7000CF93DF936B017C01C0911302D0911402CB
:101B8000BE0180E090E00E946F244B015C01A70140
:101B9000960160E070E08CE594E40E94C7239B010D
:101BA000AC01C501B4010E9488250E944024209107
:101BB0006602233009F473C028F4222351F0213047
:101BC000E9F02CC1243009F4A0C0253009F4E0C0AC
:101BD00025C180E090E0A0E0BFE3809306019093F0
:101BE0000701A0930801B093090110921602109208
:101BF0001702109218021092190210C110921602C8
:101C00001092170210921802109219026431710595
:101C100040F46A30710560F520E030E040E85EE3B2
:101C20002BC0693C710508F0AAC080E090E00E94DA
:101C30006F2420E030E040EA51E40E94552320E088
:101C400030E044E353E40E94C7239B01AC010E94AF
:101C5000882520E030E040E05EE30E9488259B017B
:101C6000AC0160E070E080E09EE30E94552344C038
:101C700020E030E040E05FE3C701B6010E94882524
:101C80006B017C0180E090E0A0E0BEE38093060160
:101C900090930701A0930801B0930901BFC010926F
:101CA00016021092170210921802109219024AE0BE
:101CB000469F9001479F300D1124C90168EB7BE0DE
:101CC0000E946C27BC016C5D754077FF03C0719565
:101CD00061957109072E000C880B990B0E947124E5
:101CE0002EE333EC4EE259E30E94882520E030E0F9
:101CF00040EC5EE30E945623609306017093070157
:101D0000809308019093090189C0109216021092E5
:101D100017021092180210921902CE0183709927AF
:101D2000892BE1F0BE016170772780E090E00E948E
:101D30006F2420E030E040E05EE30E94882520E050
:101D400030E040E45FE30E94562360930601709305
:101D5000070180930801909309010CC080E090E096
:101D6000A0E0BFE38093060190930701A0930801D0
:101D7000B0930901C770DD27CD2B09F04FC0109239
:101D8000060110920701109208011092090146C045
:101D90001092160210921702109218021092190255
:101DA00000E010E020E03FE30093060110930701FC
:101DB00020930801309309016739710578F180E0BB
:101DC00090E00E946F2420E030E047E153E40E945D
:101DD000552320E030E04AE754E40E94C72320E086
:101DE00030E048E452E40E94882520E030E040EAF8
:101DF00051E40E94B7240E943924660F771F660FB2
:101E0000771FFB01E45BFE4F2081318142815381CA
:101E1000C701B6010E9488256B017C01C701B6018C
:101E2000DF91CF911F910F91FF90EF90DF90CF90B6
:101E3000BF90AF909F908F90089590936C02809385
:101E40006B020895E0916B02F0916C02309721F0E3
:101E50000190F081E02D099480E00895E0916B02FB
:101E6000F0916C02309721F00280F381E02D09940B
:101E700008952091690230916A022817390771F09C
:101E800090936A0280936902E0916B02F0916C0278
:101E9000309721F00680F781E02D09940895209174
:101EA0006702309168022817390771F09093680231
:101EB00080936702E0916B02F0916C02309721F001
:101EC0000084F185E02D0994089508950C94650F20
:101ED0000E94E81A0E9463060C946E1B5F926F9238
:101EE0007F928F929F92AF92BF92CF92DF92EF92AA
:101EF000FF920F931F93CF93DF93CDB7DEB72A974F
:101F00000FB6F894DEBF0FBECDBF0E94AD069EE6B1
:101F1000C92E92E0D92E00E010E0AA24A394B12C9F
:101F2000502E802F0E9450074C01F6016190719055
:101F30006F016826792661147104B1F40F5F1F4F99
:101F40000430110569F78FEF89838A831B820E9411
:101F5000F11A8160782F9D838C8349815A816B812E
:101F60008D810E9425103AC08091CB0281FD0E9494
:101F7000590720E030E07501022E02C0EE0CFF1C74
:101F80000A94E2F7C3018E219F21892B09F12E8348
:101F90005F828E209F2091E0892809F490E0988745
:101FA0000E94F11A8160782F9A8789874E815F811C
:101FB00068858A850E942510000F111FF801E259DB
:101FC000FD4F80819181E826F926F182E08206C0EA
:101FD0002F5F3F4F2C30310571F6B0CF0E94220F9A
:101FE00090916D028917D9F00E94220F80936D02A3
:101FF0002A960FB6F894DEBF0FBECDBFDF91CF910A
:102000001F910F91FF90EF90DF90CF90BF90AF9016
:102010009F908F907F906F905F900C9486022A968D
:102020000FB6F894DEBF0FBECDBFDF91CF911F91E9
:102030000F91FF90EF90DF90CF90BF90AF909F9067
:102040008F907F906F905F900895CF93DF93CDB77F
:10205000DEB72B970FB6F894DEBF0FBECDBF4F8310
:10206000588769877A878B87DE01119686E0FD01A4
:1020700011928A95E9F785E0FE01379601900D925D
:102080008A95E1F749815A816B817C818D819E819E
:102090000E945F162B960FB6F894DEBF0FBECDBF21
:1020A000DF91CF910895CF93C82F882309F4CCC036
:1020B000823859F40E94220F81FDC6C089E30E9434
:1020C0003A190E94021A89E30CC0833879F40E94FD
:1020D000220F80FDB9C083E50E943A190E94021ABE
:1020E00083E50E947919CF910C94021A843859F42F
:1020F0000E94220F82FDA8C087E40E943A190E9424
:10210000021A87E4EECF8CEF8C0F813A48F48C2FC3
:102110000E94441C811198C08C2F0E943A19E3CF71
:1021200080E28C0F883048F4C77081E001C0880FCE
:10213000CA95EAF70E94BB19D6CF8BE58C0F833086
:1021400078F4C53A29F0C63A31F083E890E005C04A
:1021500081E890E002C082E890E0CF910C94390FC2
:1021600088E58C0F853108F06FC0C83A61F1C93A33
:1021700069F1CA3A71F1CB3A79F1CC3A81F1CB3BB2
:1021800089F1CC3B91F1CD3A99F1C03BA1F1CE3A26
:10219000A9F1CF3AB1F1C13BB9F1C23BC1F1C33BA7
:1021A000C9F1C43BD1F1C53BD9F1C63BE1F1C73B15
:1021B000E9F1C83BF1F1C93BF9F1CA3B09F43FC071
:1021C00080E090E03EC082EE90E03BC089EE90E07F
:1021D00038C08AEE90E035C085EB90E032C086EBE7
:1021E00090E02FC083EB90E02CC084EB90E029C0FE
:1021F00087EB90E026C08CEC90E023C08DEC90E063
:1022000020C083E891E01DC08AE891E01AC082E90D
:1022100091E017C084E991E014C081E292E011C01E
:1022200083E292E00EC084E292E00BC085E292E08D
:1022300008C086E292E005C087E292E002C08AE22E
:1022400092E0CF910C944F0FCF910895882309F419
:102250004BC0823859F40E94220F81FF45C089E3A8
:102260000E943A190E94021A89E30CC0833871F463
:102270000E94220F80FF38C083E50E943A190E9415
:10228000021A83E50E9479190C94021A843859F4D1
:102290000E94220F82FF28C087E40E943A190E9400
:1022A000021A87E4EFCF9CEF980F913A58F390E22F
:1022B000980F983050F4877091E001C0990F8A957B
:1022C000EAF7892F0E94C119DFCF9BE5980F933061
:1022D00020F480E090E00C94390F885A853120F486
:1022E00080E090E00C944F0F0895882321F00E9425
:1022F000BB190C94021A0895882321F00E94C11979
:102300000C94021A08958F929F92AF92BF92CF922F
:10231000DF92EF92FF920F931F93CF93DF931F9261
:10232000CDB7DEB77C01C62E472FFC010581029593
:102330000F701281112321F079830E94D8194981ED
:1023400049830E9433194981882381F0112371F058
:1023500080E28C0D883050F082E00E941C190E94AF
:10236000331991E0D82ED926498101C0D12CE42F10
:10237000E295EF708E2F90E0FC01EA5AFF4F0C942B
:102380009427842F807F042F0F70882311F00295EB
:10239000007F112389F0002309F47DC180E28C0DB8
:1023A000883020F4802F0E94BB1903C0802F0E9428
:1023B000CB190E94021A6FC18C2D0E942611002396
:1023C00009F480C180E28C0D883020F4802F0E94B7
:1023D000C11903C0802F0E94D1190E94021A72C134
:1023E000942F907F842F8F70903211F08295807F90
:1023F000CC2021F0F1E0CF16A1F01DC0112339F05F
:10240000002319F1013009F50E94EB195BC100238B
:1024100019F0013009F456C189830E94EE198981AF
:10242000F8C0112321F0063008F04CC10EC0053071
:1024300008F048C1EEC0112359F0002331F0F70134
:10244000958190FF28C19F7095830E9475113AC1B4
:10245000002309F4DEC025C1842F869586958370FC
:1024600019F0813061F02EC1112321F08C2D942FB1
:10247000937002C080E090E00E94390F23C11123C5
:1024800021F08C2D942F937002C080E090E00E9488
:102490004F0F18C1842F837009F04DC0111112C164
:1024A0002C2D229526952770220F220F6C2D6F70F0
:1024B000862F90E0A0E0B0E04C015D01022E04C048
:1024C000880C991CAA1CBB1C0A94D2F7C4FE12C02B
:1024D0008FE090E0A0E0B0E004C0880F991FAA1F31
:1024E000BB1F2A95D2F7BC01CD01609570958095F0
:1024F000909503C060E070E0CB01242F26952695CF
:102500002370223051F080F4682979298A299B2987
:10251000213071F00E94A817D5C0682979298A292D
:102520009B290E94C417CEC00E94A817C501B40100
:102530000E948C17C7C0112319F0842F817001C02D
:102540008695882309F4BEC02C2D229526952770E8
:10255000220F220F6C2D6F70862F90E0A0E0B0E06C
:102560004C015D01022E04C0880C991CAA1CBB1CE6
:102570000A94D2F7C4FE12C08FE090E0A0E0B0E071
:1025800004C0880F991FAA1FBB1F2A95D2F7BC0150
:10259000CD01609570958095909503C060E070E0E6
:1025A000CB01242F269526952370223051F080F4FC
:1025B000682979298A299B29213071F00E94821883
:1025C00081C0682979298A299B290E949E187AC08E
:1025D0000E948218C501B4010E94661873C08C2D38
:1025E00090E0FC01E05EF109E531F10508F04FC033
:1025F000EA59FF4F0C9494270C2D0F70842F8F7184
:10260000112321F00E94FF17802F1FCF0E94201856
:10261000802F0E947C1156C0112341F0053008F034
:1026200051C0842F8F710E9445184CC0063008F0AD
:1026300049C0F7CF112339F0842F8F710E94FF1703
:1026400041C01123C9F3842F8F710E9420183AC012
:10265000112329F0842F8F710E94EA1733C00E9442
:10266000E01730C0112351F0142F1F71812F0E94E9
:10267000FF1763E0812F0E94131924C081E00E949C
:102680001C190230F8F082E00E941C191BC01123B3
:1026900031F0002389F28C2D0E94531013C00023C7
:1026A00091F28C2D0E9426110DC04F706C2DC70128
:1026B0000E945C020E94041705C04F706C2DC70178
:1026C0000E945805DD20F1F00E940F1980FD1AC00C
:1026D000F70112820E9409190E94FF17C7010E9488
:1026E00090130E9409190F90DF91CF911F910F91C4
:1026F000FF90EF90DF90CF90BF90AF909F908F9022
:102700000C9420180F90DF91CF911F910F91FF90A3
:10271000EF90DF90CF90BF90AF909F908F900895F3
:102720000F931F93CF93DF93EC018B819C81892BB7
:10273000C9F089818F3F19F488818F3F99F0CE01CC
:102740000E949A02882371F0688179818A810E94AF
:1027500005198C010E94BA180E948117B801CE0198
:102760000E948311DF91CF911F910F9108950E94D4
:10277000D8190E94E8190E94AD190E94021A80E03F
:1027800090E00E94390F80E090E00C944F0F0E947F
:10279000C8190C94B7130E94FA18292F22952F708C
:1027A0002C3030F42A3048F42250223098F405C0FE
:1027B0002C3061F02F3051F00DC0803F69F018F4DB
:1027C000803E40F409C0843F29F406C093FB88276B
:1027D00080F9089580E0089581E00895CF93DF9314
:1027E00000D000D01F92CDB7DEB70F900F900F90A2
:1027F0000F900F90DF91CF910895CF93DF9300D08A
:1028000000D000D0CDB7DEB726960FB6F894DEBF65
:102810000FBECDBFDF91CF9108951F93CF93DF936C
:10282000C091760216E080917702C81799F0D0E047
:102830001C9FF0011D9FF00D1124E858FD4F4081B1
:10284000518162817381848195810E94FD1321965B
:10285000C770E9CFDF91CF911F9108954091A802F1
:102860005091A9026091AA027091AB028091AC02D2
:102870009091AD020C94FD138091AD0282958F7002
:1028800009F054C08091AA02882309F44FC08091B6
:102890007602A09177024091AB025091AC02609118
:1028A000A8027091A902B6E08A1709F43FC090E02F
:1028B00041155105C1F17F3F11F46F3FA1F1B89F60
:1028C000F001B99FF00D1124E858FD4F2181271325
:1028D0002AC02081261327C02281211124C02381F0
:1028E00034812417350710F421503109241B350B8E
:1028F000283C3105C0F42091AD022F702061209357
:10290000AD0226E0289FF001299FF00D1124E35825
:10291000FD4F80818F708061808388EA92E00E9401
:1029200090130C940D1401968770BECF0895CF922A
:10293000DF92EF92FF920F931F93CF93DF93CDB768
:10294000DEB762970FB6F894DEBF0FBECDBF8C0125
:1029500085E0F801DE011D9601900D928A95E1F760
:10296000D8014C9111965C91119712966C918091BF
:10297000AB029091AC02009709F475C13091A802A6
:102980007091A9027F3F19F43F3F09F46CC1F8012F
:10299000C380D480E090AA02EE2009F4BEC020914A
:1029A000AD02C816D90628F0D601A81BB90BCD0177
:1029B00004C0809590958C0D9D1DFF24F394883C58
:1029C000910578F0F12C207F09F0C4C07C2DD98AC4
:1029D000C88A89890E94EE1388EA92E00E949013C7
:1029E000AFC0822F807F09F045C0571313C0431337
:1029F00011C061110FC02F7020612093AD020E94A1
:102A00002E1488EA92E00E9490138091AD02F801A2
:102A100085832EC0CD2819F15F3F11F44F3FF9F0A7
:102A2000F62E61111CC0809176022091770236E06B
:102A3000821709F45BC090E0389FF001399FF00DD8
:102A40001124E858FD4F7181571306C07081471358
:102A500003C07281711103C001968770E9CFF62E11
:102A6000662309F41CC18091AD0281608093AD02A0
:102A7000F12C15C1571309C0431307C0611105C0DC
:102A80008091AD02F8018583C8C04D875E878D8532
:102A90009E856A8B0E94CB136A898823D1F16623B5
:102AA000C1F12091AD02822F82958F7090E0029744
:102AB00074F08091A8029091A90298878F8319865B
:102AC000DB86CA862C87CE0107960E94901386E08B
:102AD000F801A8EAB2E001900D928A95E1F70E9410
:102AE0003C140E942E14FF24F394D9C04D875E87B6
:102AF0008D859E850E94FA18292F22952F702230ED
:102B000008F0C1C09F7009F0BBC0805E883008F437
:102B1000C6C0C8010E949013E6CFC816D90608F4B3
:102B200053C0F601E81BF90BCF01883C910508F46E
:102B300050C0F12C7C2DD98AC88A89890E94EE1355
:102B4000E8EAF2E086E0DF011D928A95E9F70E944B
:102B50002E14A5C0571314C0431312C0611110C026
:102B60008091AD02F8018583C8010E94901386E030
:102B7000E8EAF2E0DF011D928A95E9F7FE2C8FC0AA
:102B80004D875E878D859E856A8B0E94CB136A89EF
:102B9000882309F4BECF662309F4BBCF2091AD0290
:102BA000822F82958F7090E002970CF490CF8091E5
:102BB000A8029091A9029A8389831B82DD82CC822C
:102BC0002E83CE01019681CF809590958C0D9D1D11
:102BD000ACCFF62E662309F49CCF571333C04313B2
:102BE00031C02091AD0220FD24C0822F82958F70CC
:102BF000482F50E041155105E1F0D80115962C936E
:102C000015974F30510549F08F5F982F9295907F1F
:102C1000822F8F70892B15968C93C8010E94901378
:102C200086E0F801A8EAB2E001900D928A95E1F7FA
:102C30008ECF86E0F801A8EAB2E001900D928A9565
:102C4000E1F72DC04D875E878D859E850E94CB1351
:102C500081113DCF8091AD0281608093AD02C801AA
:102C60000E9490131CC0662309F453CF4D875E87E2
:102C70008D859E850E94CB13882309F44ACF27CFE8
:102C8000811143CF0CC0243008F043CF9F7009F46A
:102C90003CCFD80115969C91907F09F036CF8F2DAF
:102CA00062960FB6F894DEBF0FBECDBFDF91CF9115
:102CB0001F910F91FF90EF90DF90CF9008951F9399
:102CC000CF93DF93CDB7DEB72C970FB6F894DEBF66
:102CD0000FBECDBF4F83588769877A878B879C87C4
:102CE000CE0107960E949714882371F08A859B85F0
:102CF000892B09F441C088858F3F09F065C08F8119
:102D00008F3F09F061C038C086E0FE013796DE01D2
:102D1000119601900D928A95E1F76A857B85611580
:102D2000710551F1FF81E885EF3F11F4FF3F21F17B
:102D30002091770230E0C901019687709927409170
:102D4000760250E08417950709F447C0F983EA83B7
:102D50007D836C8396E0929FD001939FB00D1124E8
:102D6000A858BD4FFE01319601900D929A95E1F75A
:102D7000809377020E940D1416E080917602909164
:102D800077028917B9F1189FC001112488589D4F07
:102D90000E949714882371F1E09176021E9FF00142
:102DA0001124E858FD4F40815181628173818481F3
:102DB00095810E94FD138091760290E001968770C4
:102DC000992780937602D9CF4F81588569857A8576
:102DD0008B859C850E94FD13CFCF0E94C713109254
:102DE000770210927602E8EAF2E086E0DF011D92B7
:102DF0008A95E9F72C960FB6F894DEBF0FBECDBFCB
:102E0000DF91CF911F910895EF92FF920F931F933F
:102E1000CF93DF938C01892B09F46CC0F12CEE2445
:102E2000E394E8012196F8018491843740F48430DA
:102E300008F051C0813081F0823019F15BC08537D4
:102E400009F444C0A8F19CE7980F903708F052C0ED
:102E50008F770E94261141C00E5F1F4FFE018491A3
:102E600090E2980F983050F48770FE2D01C0FF0F4C
:102E70008A95EAF78F2F0E94DB1914C00E94531025
:102E80002DC00E5F1F4FFE01849190E2980F983085
:102E900060F48770FE2D01C0FF0F8A95EAF78F2F2F
:102EA0000E94E1190E94021A19C00E94261116C040
:102EB0000E5F1F4FFE01C491CC2381F08FE99FE08C
:102EC0000197F1F700C00000C150F6CF0E5F1F4F11
:102ED000FE01F49003C00E9453108E018F2D8823B1
:102EE00009F49FCFEFE9FFE03197F1F700C0000050
:102EF0008150F5CFDF91CF911F910F91FF90EF900F
:102F0000089508956093B2027093B3028093B4025F
:102F10009093B5020C94B7130F931F930091B202D4
:102F20001091B3022091B4023091B502DC01CB01C3
:102F3000802B912BA22BB32B8093B2029093B302E0
:102F4000A093B402B093B5021F910F910C94B713E4
:102F50000F931F930091B2021091B3022091B4021B
:102F60003091B502DC01CB0180239123A223B3234E
:102F70008093B2029093B302A093B402B093B502CF
:102F80001F910F910C94B7130F931F930091B202EE
:102F90001091B3022091B4023091B502DC01CB0153
:102FA00080279127A227B3278093B2029093B30280
:102FB000A093B402B093B5021F910F910C94B71374
:102FC0001092AE021092AF021092B0021092B102B3
:102FD0000C94B71341E050E060E070E004C0440F8F
:102FE000551F661F771F8A95D2F74093AE02509304
:102FF000AF026093B0027093B1020C94B71341E03A
:1030000050E060E070E004C0440F551F661F771F5A
:103010008A95D2F78091AE029091AF02A091B00252
:10302000B091B102482B592B6A2B7B2B4093AE02F7
:103030005093AF026093B0027093B1020C94B71337
:1030400041E050E060E070E004C0440F551F661F8F
:10305000771F8A95D2F7409550956095709580912D
:10306000AE029091AF02A091B002B091B10248239C
:1030700059236A237B234093AE025093AF0260939F
:10308000B0027093B1020C94B71341E050E060E0DD
:1030900070E004C0440F551F661F771F8A95D2F752
:1030A0008091AE029091AF02A091B002B091B102B6
:1030B000482759276A277B274093AE025093AF02D7
:1030C0006093B0027093B1020C94B7130F931F93E7
:1030D0000091AE021091AF022091B0023091B10286
:1030E000DC01CB01802B912BA22BB32B8093AE0262
:1030F0009093AF02A093B002B093B1021F910F91D1
:103100000C94B7130F931F930091AE021091AF026E
:103110002091B0023091B102DC01CB0180239123D8
:10312000A223B3238093AE029093AF02A093B00288
:10313000B093B1021F910F910C94B7130F931F938B
:103140000091AE021091AF022091B0023091B10215
:10315000DC01CB0180279127A227B3278093AE0201
:103160009093AF02A093B002B093B1021F910F9160
:103170000C94B7130895CF92DF92EF92FF920F93C2
:103180001F93CF93DF938C01C090AE02D090AF021B
:10319000E090B002F090B1028091B2029091B3023F
:1031A000A091B402B091B502C82AD92AEA2AFB2A12
:1031B000CFE1D0E0D701C6010C2E04C0B695A7958B
:1031C000979587950A94D2F780FD04C0219790F7D0
:1031D00080E007C0B8018C2F0E94C7030197B1F3AC
:1031E0008C2FDF91CF911F910F91FF90EF90DF9087
:1031F000CF900895CF93DF93EC010E94BB18BE01DE
:103200000E94C703DF91CF910895CB010E94FA1865
:1032100008958091B602859585958595089580914C
:10322000B6028770089598E0899F90011124262B9B
:103230002093B6020C94FF172091B602809582234A
:103240008093B602982F977069F430E0482F082ECB
:10325000000C550B2417350729F085958595859524
:103260000C94201808959091B602977081E009F4AB
:1032700080E00895909118019923F1F090910B014D
:103280009923D1F0982F9695969596959F3080F535
:10329000E0910C01F0910D01E90FF11D877021E023
:1032A00030E0A90102C0440F551F8A95E2F7CA0118
:1032B0009181892B8183089520910C0130910D011A
:1032C000F90132969FEF40E05191851789F09F3FB9
:1032D00019F4511101C0942F4F5F4E30A9F79F3F51
:1032E00039F0F901E90FF11D97FDFA9582830895F0
:1032F0000895909118019923F9F090910B01992369
:10330000D9F0982F9695969596959F3028F5E0914F
:103310000C01F0910D01E90FF11D877021E030E003
:10332000A90102C0440F551F8A95E2F7CA01809592
:10333000918189238183089520910C0130910D01A1
:10334000F9013296205F3F4F9081891301C01082AE
:103350003196E217F307C1F7089581E090E0E0911C
:103360000C01F0910D01E80FF91F108201968031D8
:103370009105A9F708959091CA02892B8093CA02FA
:10338000089580959091CA0289238093CA02089576
:103390001092CA0208959091C902892B8093C902A4
:1033A000089580959091C90289238093C902089558
:1033B0001092C90208959091C802892B8093C80287
:1033C000089580959091C80289238093C80208953A
:1033D0001092C80208958093B70208951092B70220
:1033E000089580910C0190910D01FC0131969C0192
:1033F000205F3F4F80E0919191118F5FE217F307BB
:10340000D1F70895E0910C01F0910D018091CA026D
:103410008083E0910C01F0910D0190818091C902AF
:10342000892B8083E0910C01F0910D0190818091B6
:10343000C802892B80838091B702882361F0E091D4
:103440000C01F0910D019081892B80830E94F1196C
:1034500081111092B70280910C0190910D010C9492
:103460002E0F6DEE7EEF80E090E00E94BA2760E0C4
:1034700082E090E00E94A82760E083E090E00E9454
:10348000A82760E084E090E00E94A82760E085E043
:1034900090E00E94A8276FEF87E090E00C94A827A7
:1034A00080E090E00E94A22721E08D3E9E4F09F02F
:1034B00020E0822F089582E090E00C949A2783E028
:1034C00090E00C949A2784E090E00C949A27682F5F
:1034D00084E090E00C94A82787E090E00C949A2771
:1034E000682F87E090E00C94A8278091F602843042
:1034F00039F11092CC0220E488E190E00FB6F89404
:10350000A895809360000FBE2093600080E00E9429
:10351000860283B7817F846083BF83B7816083BF66
:103520007894889583B78E7F83BF0FB6F894A8955B
:1035300080916000886180936000109260000FBEEF
:10354000089508950C94A11ACF930E94A21A0E9484
:10355000AD060E94A11AC0E08C2F0E945007892B53
:1035600029F4CF5FC430C1F780E001C081E0CF9182
:1035700008950E94C7130E94220F0C9486021F9286
:103580000F920FB60F9211248F939F93AF93BF9317
:103590008091CC02811113C08091CD029091CE0216
:1035A000A091CF02B091D0024196A11DB11D809390
:1035B000CD029093CE02A093CF02B093D002BF91E0
:1035C000AF919F918F910F900FBE0F901F90189504
:1035D00082E084BD93E095BD9AEF97BD80936E0025
:1035E00008952FB7F8948091CD029091CE02A091CA
:1035F000CF02B091D0022FBF0895CF92DF92EF9209
:10360000FF920F931F932FB7F8944091CD025091E2
:10361000CE026091CF027091D0022FBF6A017B0170
:10362000EE24FF248C0120E030E0C016D106E20633
:10363000F30610F4415051099A01281B390BC901B6
:103640001F910F91FF90EF90DF90CF9008951F9200
:103650000F920FB60F9211248F939F93AF93BF9346
:103660008091CD029091CE02A091CF02B091D00274
:103670000196A11DB11D8093CD029093CE02A0931F
:10368000CF02B093D002BF91AF919F918F910F90D5
:103690000FBE0F901F9018950E945220F8942FEFA4
:1036A00087EA91E6215080409040E1F700C0000099
:1036B00087E090EBDC018093FF0290930003A093DE
:1036C0000103B09302039CE088E10FB6F894A8953B
:1036D000809360000FBE90936000FFCF0E94501A4D
:1036E000811102C00E94311A0E945B1A8093CB02A2
:1036F0000E94631A90E09093F1028093F00287FB9E
:10370000882780F980930B010E945F1A682F70E070
:1037100080E090E00C9482170F931F93873208F09B
:1037200048C08E3108F08DC0803109F477C008F5AB
:10373000873009F461C068F4863009F09DC080913B
:10374000CB02817F8E7F8093CB0281E08093D10278
:1037500094C08B3009F489C08E3009F08DC08091FF
:10376000CB0282FB222720F991E0922790FB82F97D
:103770005EC0863109F479C060F4813109F07CC003
:103780000E94C71390910B0181E0892780930B0160
:103790006CC0893109F469C08B3109F06DC080912A
:1037A000CB0281FB222720F991E0922790FB81F93F
:1037B0003EC0883309F459C050F4893209F457C027
:1037C000853309F454C0873209F451C055C083349D
:1037D00009F44DC028F48A3308F44EC0895332C02E
:1037E000883409F049C00E94C7130E9430090E9422
:1037F00088020E944C1B39C09091CB02892F809582
:10380000817080FB90F929F0966098609093CB02CC
:1038100034C0997F977F9093CB0227C08091CB02D1
:1038200083FB222720F991E0922790FB83F9809374
:10383000CB029923D1F08091CB0281608093CB029F
:1038400014C08D5141E050E060E070E08A019B01BE
:1038500004C0000F111F221F331F8A95D2F7C90120
:10386000B8010E9482170E94C71381E006C061E080
:1038700070E080E090E0F5CF80E01F910F91089517
:1038800080E008950C94401CCF93C82F8091D10202
:10389000882319F0813049F031C0E0910C01F0919A
:1038A0000D018081823261F507C0E0910C01F09139
:1038B0000D018081823261F48C2F0E94421C8111A3
:1038C00004C08C2F0E948C1B17C081E090E014C0B4
:1038D0008C2F0E94401C81110EC0C43149F018F495
:1038E000CB3049F00FC0C93219F0C83321F00AC0FB
:1038F0001092D10207C081E0817006C01092D102FF
:1039000080E002C080E0F8CFCF9108958091E2027C
:1039100008950895CF93DF9300D01F92CDB7DEB7FF
:103920002091F602243021F523E029839B838A83AA
:1039300082E08093E9008FEF9091E800815095FD3F
:1039400006C095ED9A95F1F700008111F5CF8091B1
:10395000E80085FF0DC040E050E063E070E0CE017C
:1039600001960E94C11E8091E8008E778093E80046
:103970000F900F900F90DF91CF910895CF93DF9329
:1039800000D01F92CDB7DEB79C018091F602843043
:1039900019F592E099833B832A839093E9008FEF96
:1039A0009091E800815095FD06C095ED9A95F1F74C
:1039B00000008111F5CF8091E80085FF0DC040E047
:1039C00050E063E070E0CE0101960E94C11E80913C
:1039D000E8008E778093E8000F900F900F90DF91B2
:1039E000CF910895CF93DF93EC018091F60284305C
:1039F00009F047C0809118018823E1F080910B0104
:103A00008823C1F083E08093E9008FEF9091E80074
:103A1000815095FD06C095E19A95F1F7000081115E
:103A2000F5CF8091E80085FF2CC040E050E060E1D8
:103A300070E017C081E08093E9008FEF9091E8007B
:103A4000815095FD06C095ED9A95F1F70000811122
:103A5000F5CF8091E80085FF14C040E050E068E0B9
:103A600070E0CE010E94C11E8091E8008E778093A5
:103A7000E80080E1FE01A2EDB2E001900D928A958E
:103A8000E1F7DF91CF9108958091F502811109C08E
:103A90000E9452200E94AF208091E20084608093B7
:103AA000E20008951092F5020895089508950C9487
:103AB000B91A42E061EC81E00E94CB1F42E061EC68
:103AC00082E00E94CB1F42E161EC83E00C94CB1FAB
:103AD0008091F802833009F455C030F4813071F0E0
:103AE000823009F48EC008958A3009F47AC08B3090
:103AF00009F460C0893009F09CC020C08091F702B1
:103B0000813A09F096C08091E800877F8093E800B1
:103B10008091FB029091FC02892B21F460E182EDFF
:103B200092E003C060E080E090E070E00E940C1F33
:103B30008091E8008B778093E80008958091F702E8
:103B4000813209F076C08091FB029091FC020097CF
:103B500019F0029709F06DC08091E800877F80938B
:103B6000E8008091E80082FD05C08091F602811195
:103B7000F8CF5FC08091F1008093E2028091E8006D
:103B80008B7753C08091F702813A09F052C080913F
:103B9000FB029091FC02892B09F04BC08091E80058
:103BA000877F8093E8008091E80080FFFCCF8091C0
:103BB000180136C08091F7028132D9F58091FB025D
:103BC0009091FC02892BA9F58091E800877F809372
:103BD000E8000E9400208091F902809318010C9463
:103BE000C7138091F702813221F58091E800877F29
:103BF0008093E8000E9400208091FA028093E30203
:103C000008958091F702813AA1F48091E800877FBE
:103C10008093E8008091E80080FFFCCF8091E30270
:103C20008093F1008091E8008E778093E8000C94F7
:103C30000020089584B7877F84BF0FB6F894A895B5
:103C400080916000886180936000109260000FBED8
:103C500080E880936100109261000E94660F0E94CC
:103C600052200E94AF208091E20084608093E200A5
:103C700078940E943A230E94680F8EE091E00E949F
:103C80001D0F8091F602853069F40E94751A8091AB
:103C9000F4028823B1F30E94A41A882391F30E94AE
:103CA000AB1EEFCF0E946E0FECCF292F33272330AE
:103CB0003105C9F060F42130310581F02230310541
:103CC00009F041C084E590E028E033E040C02132B3
:103CD0003105E1F02232310531F135C082E190E069
:103CE0002CE533E034C099278130910549F028F064
:103CF000029749F5ECEAF2E005C0E4E0F3E002C027
:103D0000E6EDF2E0849190E09F0121C06330D8F4A9
:103D1000E62FF0E0EE0FFF1FEB55FE4F20813181C3
:103D200089E090E014C0633070F470E0FB01EE0FA6
:103D3000FF1FE156FE4F20813181FB01E456FE4F0B
:103D4000808190E004C080E090E020E030E0FA0163
:103D500031832083089580E189BD82E189BD09B462
:103D600000FEFDCF8091D8008F7D8093D800809198
:103D7000E00082608093E0008091E00081FDFCCF54
:103D80000895CF92DF92EF92FF920F931F93CF93FC
:103D9000DF93EC018B016A010E941F20811133C067
:103DA000C114D10439F0F60180819181081B190BEF
:103DB000C80FD91FE12CF12C0115110519F18091C3
:103DC000E80085FD16C08091E8008E778093E800BA
:103DD000C114D10449F0F60180819181E80EF91EE9
:103DE000F182E08285E00FC00E941F20882321F32A
:103DF0000AC089918093F10001501109FFEFEF1A79
:103E0000FF0ADACF80E0DF91CF911F910F91FF90F1
:103E1000EF90DF90CF9008952091FD023091FE0247
:103E20002617370748F06115710539F42091E8002D
:103E30002E772093E80001C0B901FC0120E0611554
:103E4000710579F18091F6028823F1F18530F1F165
:103E50008091E80083FD3CC08091E80082FD2EC087
:103E60008091E80080FFEBCF2091F3008091F20079
:103E700090E0922B6115710551F08830910538F46E
:103E800021912093F100615071090196F3CF21E057
:103E9000089709F020E08091E8008E778093E80091
:103EA000CECF2111CFCF0AC08091F602882361F0D6
:103EB000853061F08091E80083FD0AC08091E800C0
:103EC00082FFF2CF80E0089582E0089583E00895B4
:103ED00081E008952091FD023091FE0226173707F8
:103EE00048F06115710539F42091E8002E77209390
:103EF000E80001C0B901FC0120E06115710591F1F4
:103F00008091F602882309F440C0853009F43FC04F
:103F10008091E80083FD3DC08091E80082FD2FC0C4
:103F20008091E80080FFE9CF2091F3008091F200BA
:103F300090E0922B6115710559F08830910540F49D
:103F400024912093F1003196615071090196F2CFCE
:103F500021E0089709F020E08091E8008E778093B7
:103F6000E800CBCF2111CCCF0AC08091F602882384
:103F700061F0853061F08091E80083FD0AC0809196
:103F8000E80082FFF2CF80E0089582E0089583E0A8
:103F9000089581E00895982F973068F59093E9008F
:103FA000981739F07091EC002091ED005091F000DD
:103FB00003C0242F762F50E021FD02C09F5FECCF7D
:103FC0003091EB003E7F3093EB003091ED003D7F70
:103FD0003093ED003091EB0031603093EB00709343
:103FE000EC002093ED005093F0002091EE0027FDAF
:103FF000E5CF80E008958F708093E90081E0089517
:104000008091F70287FF11C08091E80082FD05C012
:104010008091F6028111F8CF11C08091E8008B7772
:104020000BC08091F602882349F08091E80080FF60
:10403000F8CF8091E8008E778093E8000895209172
:10404000E4003091E50095E64091EC00842F81700A
:1040500040FF23C08091E80080FD1DC08091F602E2
:10406000882399F0853099F08091EB0085FD11C08F
:104070004091E4005091E5002417350729F3915051
:1040800011F09A01E1CF84E0089582E0089583E081
:10409000089581E0089580E008954091E80042FF8E
:1040A000DDCF08950E94C0200E94C820E0EEF0E01D
:1040B000808181608083E8EDF0E080818F7780836C
:1040C00019BCA7EDB0E08C918E7F8C9380818F7EA0
:1040D00080831092F50208950F931F93CF93DF937F
:1040E0000E94C0200E94C820C8EDD0E088818F7750
:1040F000888388818068888388818F7D888319BCC4
:104100001092F6021092F2021092F4021092F30250
:1041100000EE10E0F80180818B7F808388818160D0
:10412000888342E060E080E00E94CB1FE1EEF0E097
:1041300080818E7F8083E2EEF0E0808181608083E9
:10414000808188608083F80180818E7F8083888170
:1041500080618883DF91CF911F910F910895E8EDE1
:10416000F0E080818F7E8083E7EDF0E080818160E8
:10417000808384E082BF81E08093F5020C946C2000
:10418000E8EDF0E080818E7F80831092E200089558
:104190001092DA001092E10008951F920F920FB66C
:1041A0000F9211242F933F934F935F936F937F93BD
:1041B0008F939F93AF93BF93EF93FF938091E10011
:1041C00082FF0BC08091E20082FF07C08091E10076
:1041D0008B7F8093E1000E9439238091DA0080FF79
:1041E0001FC08091D80080FF1BC08091DA008E7FB5
:1041F0008093DA008091D90080FF0DC080E189BDF5
:1042000082E189BD09B400FEFDCF81E08093F60212
:104210000E94441D05C019BC1092F6020E94521D56
:104220008091E10080FF19C08091E20080FF15C0FD
:104230008091E2008E7F8093E2008091E2008061B5
:104240008093E2008091D80080628093D80019BCEE
:1042500085E08093F6020E94561D8091E10084FF64
:1042600030C08091E20084FF2CC080E189BD82E1F2
:1042700089BD09B400FEFDCF8091D8008F7D809369
:10428000D8008091E1008F7E8093E1008091E20070
:104290008F7E8093E2008091E20081608093E20053
:1042A0008091F202882311F084E007C08091E3003E
:1042B00087FD02C081E001C083E08093F6020E9486
:1042C000571D8091E10083FF29C08091E20083FFA8
:1042D00025C08091E100877F8093E10082E0809398
:1042E000F6021092F2028091E1008E7F8093E1004D
:1042F0008091E2008E7F8093E2008091E2008061F5
:104300008093E20042E060E080E00E94CB1F809159
:10431000F00088608093F0000E94551DFF91EF919E
:10432000BF91AF919F918F917F916F915F914F91CD
:104330003F912F910F900FBE0F901F9018951F92D5
:104340000F920FB60F9211242F933F934F935F93C9
:104350006F937F938F939F93AF93BF93CF93DF938D
:10436000EF93FF93C091E900CF708091EC00D82FBC
:10437000D17080FDD0E81092E9008091F000877F35
:104380008093F00078940E94E3211092E9008091DC
:10439000F00088608093F000CD2BCF70C093E900CF
:1043A000FF91EF91DF91CF91BF91AF919F918F914D
:1043B0007F916F915F914F913F912F910F900FBE21
:1043C0000F901F9018951F93CF93DF93CDB7DEB753
:1043D000AA970FB6F894DEBF0FBECDBFE7EFF2E0AD
:1043E0008091F100819322E0EF3FF207C9F70E942C
:1043F000681D8091E80083FF24C18091F7029091AD
:10440000F802492F50E04A30510508F01AC1FA016C
:10441000E558FF4F0C949427803881F0823809F0DA
:1044200010C18091FB028F708093E9008091EB00B6
:1044300085FB882780F91092E90006C08091F3027D
:104440009091F402911182609091E800977F90938F
:10445000E8008093F1001092F100C8C0282F2D7F52
:1044600009F0EFC0882319F0823061F0EAC0809132
:10447000F902813009F0E5C0933009F080E08093C3
:10448000F4022BC08091F902811127C08091FB02B8
:104490008F7009F4D6C08093E9002091EB0020FFD3
:1044A0001CC0933021F48091EB00806214C0909185
:1044B000EB0090619093EB0021E030E0A90102C095
:1044C000440F551F8A95E2F74093EA001092EA00E4
:1044D0008091EB0088608093EB001092E90080915E
:1044E000E800877F86C08111ACC01091F9021F7768
:1044F0008091E3008078812B8093E3008091E80035
:10450000877F8093E8000E9400208091E80080FF70
:10451000FCCF8091E30080688093E300111102C01A
:1045200082E001C083E08093F6028BC08058823025
:1045300008F087C08091F9029091FA028C3D53E017
:10454000950779F583E08A838AE289834FB7F894E7
:10455000DE01139620E03EE051E2E32FF0E05093BD
:104560005700E49120FF03C0E295EF703F5FEF70CA
:104570008E2F90E0EA3010F0C79601C0C0968D9360
:104580009D932F5F243149F74FBF8091E800877FCB
:104590008093E8006AE270E0CE0101960E940C1F51
:1045A00014C0AE014F5F5F4F6091FB020E94551E29
:1045B000BC01892B09F445C09091E800977F909346
:1045C000E80089819A810E946A1F8091E8008B77B8
:1045D0008093E80036C08038A1F58091E800877F9D
:1045E0008093E8008091F2028093F1008091E800CE
:1045F0008E778093E8000E94002023C0811121C0A3
:104600008091F9029091FA0299270297D4F480914F
:10461000E800877F8093E8008091F9028093F2029E
:104620000E9400208091F202811106C08091E30077
:1046300087FD02C081E001C084E08093F6020E9401
:10464000591D8091E80083FF0AC08091E800877FB0
:104650008093E8008091EB0080628093EB00AA9643
:104660000FB6F894DEBF0FBECDBFDF91CF911F9183
:1046700008950895CF938091F6028823A1F0C09108
:10468000E900CF709091EC00892F817090FD80E857
:10469000C82B1092E9008091E80083FD0E94E3217D
:1046A000CF70C093E900CF9108955058BB27AA2737
:1046B0000E946D230C9449250E943B2538F00E94EE
:1046C000422520F039F49F3F19F426F40C94382544
:1046D0000EF4E095E7FB0C942425E92F0E945A255F
:1046E00058F3BA17620773078407950720F079F427
:1046F000A6F50C947C250EF4E0950B2EBA2FA02D78
:104700000B01B90190010C01CA01A0011124FF277E
:10471000591B99F0593F50F4503E68F11A16F04079
:10472000A22F232F342F4427585FF3CF4695379578
:104730002795A795F0405395C9F77EF41F16BA0B3D
:10474000620B730B840BBAF09150A1F0FF0FBB1FEB
:10475000661F771F881FC2F70EC0BA0F621F731F34
:10476000841F48F4879577956795B795F7959E3F91
:1047700008F0B0CF9395880F08F09927EE0F979522
:10478000879508950E94002508F481E008950E940D
:10479000DB230C9449250E94422558F00E943B25BA
:1047A00040F029F45F3F29F00C94242551110C941A
:1047B0007D250C9438250E945A2568F39923B1F37E
:1047C000552391F3951B550BBB27AA276217730737
:1047D000840738F09F5F5F4F220F331F441FAA1FCB
:1047E000A9F335D00E2E3AF0E0E832D09150504087
:1047F000E695001CCAF72BD0FE2F29D0660F771F35
:10480000881FBB1F261737074807AB07B0E809F01A
:10481000BB0B802DBF01FF2793585F4F3AF09E3F9F
:10482000510578F00C9424250C947D255F3FE4F32A
:10483000983ED4F3869577956795B795F7959F5FE2
:10484000C9F7880F911D9695879597F90895E1E02E
:10485000660F771F881FBB1F621773078407BA078D
:1048600020F0621B730B840BBA0BEE1F88F7E095E8
:1048700008950E9440246894B1110C947D250895F8
:104880000E94622588F09F5798F0B92F9927B75159
:10489000B0F0E1F0660F771F881F991F1AF0BA95E4
:1048A000C9F714C0B13091F00E947C25B1E00895A1
:1048B0000C947C25672F782F8827B85F39F0B93F93
:1048C000CCF3869577956795B395D9F73EF4909597
:1048D0008095709561957F4F8F4F9F4F0895E89415
:1048E00009C097FB3EF490958095709561957F4F38
:1048F0008F4F9F4F9923A9F0F92F96E9BB279395E6
:10490000F695879577956795B795F111F8CFFAF4F5
:10491000BB0F11F460FF1BC06F5F7F4F8F4F9F4F26
:1049200016C0882311F096E911C0772321F09EE884
:10493000872F762F05C0662371F096E8862F70E0EA
:1049400060E02AF09A95660F771F881FDAF7880FC4
:104950009695879597F908950E943B2520F019F0C8
:104960000E94422550F40C9438250C947D25E92FA3
:104970000E945A2588F35523B1F3E7FB62177307AA
:1049800084079507A8F189F3E92FFF2788232AF0E8
:104990003197660F771F881FDAF7952F5527442325
:1049A00032F091505040220F331F441FD2F7BB27E3
:1049B000E91BF50B621B730B840BB109B1F222F4F6
:1049C000620F731F841FB11D31972AF0660F771F86
:1049D000881FBB1FEFCF9150504062F041F08823F9
:1049E00032F0660F771F881F91505040C1F79395A2
:1049F0000C942A258695779567959F5FD9F7F7CF11
:104A0000990F0008550FAA0BE0E8FEEF16161706DF
:104A1000E807F907C0F012161306E407F50798F047
:104A2000621B730B840B950B39F40A2661F0232B60
:104A3000242B252B21F408950A2609F4A140A695DC
:104A40008FEF811D811D089597F99F6780E870E0C1
:104A500060E008959F3F31F0915020F4879577955D
:104A60006795B795880F911D9695879597F9089545
:104A70009FEF80EC089500240A9416161706180676
:104A80000906089500240A94121613061406050652
:104A90000895092E0394000C11F4882352F0BB0FE3
:104AA00040F4BF2B11F460FF04C06F5F7F4F8F4F46
:104AB0009F4F089557FD9058440F551F59F05F3F81
:104AC00071F04795880F97FB991F61F09F3F79F030
:104AD00087950895121613061406551FF2CF4695B2
:104AE000F1DF08C0161617061806991FF1CF869534
:104AF0007105610508940895E894BB276627772718
:104B0000CB0197F908950E94002508F48FEF0895CE
:104B10000E949B250C9449250E943B2538F00E9459
:104B2000422520F0952311F00C9424250C9438256F
:104B300011240C947D250E945A2570F3959FC1F392
:104B4000950F50E0551F629FF001729FBB27F00D3B
:104B5000B11D639FAA27F00DB11DAA1F649F662790
:104B6000B00DA11D661F829F2227B00DA11D621FDF
:104B7000739FB00DA11D621F839FA00D611D221F99
:104B8000749F3327A00D611D231F849F600D211D7D
:104B9000822F762F6A2F11249F5750409AF0F1F000
:104BA00088234AF0EE0FFF1FBB1F661F771F881F69
:104BB00091505040A9F79E3F510580F00C94242558
:104BC0000C947D255F3FE4F3983ED4F3869577956A
:104BD0006795B795F795E7959F5FC1F7FE2B880F0F
:104BE000911D9695879597F90895FA01EE0FFF1F8D
:104BF000309621053105A1F16115710561F4803808
:104C0000BFE39B0749F168949038810561F08038D3
:104C1000BFEF9B0741F099234AF5FF3FE1053105BE
:104C2000210519F1E8940894E795D901AA2329F4FC
:104C3000AB2FBE2FF85FD0F310C0FF5F70F4A695C6
:104C4000E0F7F73950F019F0FF3A38F49F779F9367
:104C50000DD00F9007FC9058089546F00C9438251D
:104C600060E070E080E89FE308954FE79F775F93EF
:104C70004F933F932F930E94F0262F913F914F9196
:104C80005F910E9488250C944D2629F416F00C940F
:104C900024250C947C250C9438250E946225A8F3C9
:104CA0009638A0F707F80F92E8942BE33AEA48EB1E
:104CB0005FE70E949E250F920F920F924DB75EB74D
:104CC0000F920E943827EAE0F1E00E947F264F9180
:104CD0005F91EF91FF91E595EE1FFF1F49F0FE57A1
:104CE000E0684427EE0F441FFA95E1F74195550B14
:104CF0000E94B2260F9007FE0C94A6260895DF931B
:104D0000CF931F930F93FF92EF92DF927B018C0161
:104D1000689406C0DA2EEF010E949B25FE01E894FC
:104D2000A5912591359145915591A6F3EF010E94EA
:104D30006D23FE019701A801DA9469F7DF90EF90E7
:104D4000FF900F911F91CF91DF9108959B01AC01CE
:104D500060E070E080E89FE30C94C7230C94242566
:104D60000C942A250E946225D8F39923C9F3940F45
:104D7000511DA3F39150504094F059F0882332F024
:104D8000660F771F881F91505040C1F79E3F510515
:104D90002CF7880F911D9695879597F908955F3F99
:104DA000ACF0983E9CF0BB27869577956795B795B4
:104DB00008F4B1609395C1F7BB0F58F711F460FF89
:104DC000E8CF6F5F7F4F8F4F9F4FE3CF0C947D25D0
:104DD00016F00C942A250C94382568940C942425FC
:104DE0000E946225A8F39923C1F3AEF3DF93CF931A
:104DF0001F930F93FF92C92FDD2788232AF0219755
:104E0000660F771F881FDAF720E030E040E85FEB9D
:104E10009FE3883920F0803E38F021968F770E94FA
:104E20005623E2E3F1E004C00E945623EFE5F1E0EF
:104E30000E947F268B01BE01EC01FB2E6F5771098A
:104E40007595771F880B990B0E94712428E132E732
:104E500041E35FE30E949B25AF2D9801AE01FF90D7
:104E60000F911F91CF91DF910E946D230C944925E2
:104E7000FA01DC01AA0FBB1F9B01AC01BF5728F44C
:104E8000222733274427507820C0B75190F4AB2F06
:104E90000024469537952795011CA395D2F3002051
:104EA00071F0220F331F441FB395DAF30ED00C9428
:104EB000552361307105A0E88A07B94630F49B019B
:104EC000AC016627772788279078309621F02083D9
:104ED0003183428353830895AA1BBB1B51E107C052
:104EE000AA1FBB1FA617B70710F0A61BB70B881F7A
:104EF000991F5A95A9F780959095BC01CD01089509
:104F000097FB072E16F4009407D077FD09D00E9476
:104F10006C2707FC05D03EF4909581959F4F08952E
:104F2000709561957F4F0895EE0FFF1F0590F491E6
:104F3000E02D0994F999FECF92BD81BDF89A992789
:104F400080B50895A8E1B0E042E050E00C94C2279B
:104F5000262FF999FECF92BD81BDF89A019700B432
:104F6000021639F01FBA20BD0FB6F894FA9AF99AD2
:104F70000FBE08950196272F0E94A9270C94A827F9
:104F8000DC01CB01FC01F999FECF06C0F2BDE1BD09
:104F9000F89A319600B40D9241505040B8F70895F8
:044FA000F894FFCFB3
:104FA40005640007000C0000003F6401B802861C81
:104FB400F21C891CBE1C8A1C010002040507090B93
:104FC4000C0E1011131517181A1C1D1F212324264B
:104FD40028292B2D2F3032343537393BF1F0306707
:104FE400F4F5F6F794963497909535363149803F29
:104FF4005D8B803FF8BF803FCAE1803F73ED803F07
:10500400CAE1803FF8BF803F5D8B803F3149803FDC
:105014000000803FF16D7F3F75EA7E3F4C827E3F0A
:10502400833F7E3F84287E3F833F7E3F4C827E3F8A
:1050340075EA7E3FF16D7F3F0000803F403639DDE9
:0C50440003A7036E031A0333034C0300A0
:00000001FF
